{
  "contractName": "NftMarket",
  "abi": [
    {
      "inputs": [],
      "stateMutability": "nonpayable",
      "type": "constructor"
    },
    {
      "anonymous": false,
      "inputs": [
        {
          "indexed": true,
          "internalType": "address",
          "name": "owner",
          "type": "address"
        },
        {
          "indexed": true,
          "internalType": "address",
          "name": "approved",
          "type": "address"
        },
        {
          "indexed": true,
          "internalType": "uint256",
          "name": "tokenId",
          "type": "uint256"
        }
      ],
      "name": "Approval",
      "type": "event"
    },
    {
      "anonymous": false,
      "inputs": [
        {
          "indexed": true,
          "internalType": "address",
          "name": "owner",
          "type": "address"
        },
        {
          "indexed": true,
          "internalType": "address",
          "name": "operator",
          "type": "address"
        },
        {
          "indexed": false,
          "internalType": "bool",
          "name": "approved",
          "type": "bool"
        }
      ],
      "name": "ApprovalForAll",
      "type": "event"
    },
    {
      "anonymous": false,
      "inputs": [
        {
          "indexed": false,
          "internalType": "uint256",
          "name": "tokenId",
          "type": "uint256"
        },
        {
          "indexed": false,
          "internalType": "uint256",
          "name": "price",
          "type": "uint256"
        },
        {
          "indexed": false,
          "internalType": "address",
          "name": "creator",
          "type": "address"
        },
        {
          "indexed": false,
          "internalType": "bool",
          "name": "isListed",
          "type": "bool"
        }
      ],
      "name": "NftItemCreated",
      "type": "event"
    },
    {
      "anonymous": false,
      "inputs": [
        {
          "indexed": true,
          "internalType": "address",
          "name": "previousOwner",
          "type": "address"
        },
        {
          "indexed": true,
          "internalType": "address",
          "name": "newOwner",
          "type": "address"
        }
      ],
      "name": "OwnershipTransferred",
      "type": "event"
    },
    {
      "anonymous": false,
      "inputs": [
        {
          "indexed": true,
          "internalType": "address",
          "name": "from",
          "type": "address"
        },
        {
          "indexed": true,
          "internalType": "address",
          "name": "to",
          "type": "address"
        },
        {
          "indexed": true,
          "internalType": "uint256",
          "name": "tokenId",
          "type": "uint256"
        }
      ],
      "name": "Transfer",
      "type": "event"
    },
    {
      "inputs": [
        {
          "internalType": "address",
          "name": "to",
          "type": "address"
        },
        {
          "internalType": "uint256",
          "name": "tokenId",
          "type": "uint256"
        }
      ],
      "name": "approve",
      "outputs": [],
      "stateMutability": "nonpayable",
      "type": "function"
    },
    {
      "inputs": [
        {
          "internalType": "address",
          "name": "owner",
          "type": "address"
        }
      ],
      "name": "balanceOf",
      "outputs": [
        {
          "internalType": "uint256",
          "name": "",
          "type": "uint256"
        }
      ],
      "stateMutability": "view",
      "type": "function"
    },
    {
      "inputs": [
        {
          "internalType": "uint256",
          "name": "tokenId",
          "type": "uint256"
        }
      ],
      "name": "getApproved",
      "outputs": [
        {
          "internalType": "address",
          "name": "",
          "type": "address"
        }
      ],
      "stateMutability": "view",
      "type": "function"
    },
    {
      "inputs": [
        {
          "internalType": "address",
          "name": "owner",
          "type": "address"
        },
        {
          "internalType": "address",
          "name": "operator",
          "type": "address"
        }
      ],
      "name": "isApprovedForAll",
      "outputs": [
        {
          "internalType": "bool",
          "name": "",
          "type": "bool"
        }
      ],
      "stateMutability": "view",
      "type": "function"
    },
    {
      "inputs": [],
      "name": "listingPrice",
      "outputs": [
        {
          "internalType": "uint256",
          "name": "",
          "type": "uint256"
        }
      ],
      "stateMutability": "view",
      "type": "function"
    },
    {
      "inputs": [],
      "name": "name",
      "outputs": [
        {
          "internalType": "string",
          "name": "",
          "type": "string"
        }
      ],
      "stateMutability": "view",
      "type": "function"
    },
    {
      "inputs": [],
      "name": "owner",
      "outputs": [
        {
          "internalType": "address",
          "name": "",
          "type": "address"
        }
      ],
      "stateMutability": "view",
      "type": "function"
    },
    {
      "inputs": [
        {
          "internalType": "uint256",
          "name": "tokenId",
          "type": "uint256"
        }
      ],
      "name": "ownerOf",
      "outputs": [
        {
          "internalType": "address",
          "name": "",
          "type": "address"
        }
      ],
      "stateMutability": "view",
      "type": "function"
    },
    {
      "inputs": [],
      "name": "renounceOwnership",
      "outputs": [],
      "stateMutability": "nonpayable",
      "type": "function"
    },
    {
      "inputs": [
        {
          "internalType": "address",
          "name": "from",
          "type": "address"
        },
        {
          "internalType": "address",
          "name": "to",
          "type": "address"
        },
        {
          "internalType": "uint256",
          "name": "tokenId",
          "type": "uint256"
        }
      ],
      "name": "safeTransferFrom",
      "outputs": [],
      "stateMutability": "nonpayable",
      "type": "function"
    },
    {
      "inputs": [
        {
          "internalType": "address",
          "name": "from",
          "type": "address"
        },
        {
          "internalType": "address",
          "name": "to",
          "type": "address"
        },
        {
          "internalType": "uint256",
          "name": "tokenId",
          "type": "uint256"
        },
        {
          "internalType": "bytes",
          "name": "_data",
          "type": "bytes"
        }
      ],
      "name": "safeTransferFrom",
      "outputs": [],
      "stateMutability": "nonpayable",
      "type": "function"
    },
    {
      "inputs": [
        {
          "internalType": "address",
          "name": "operator",
          "type": "address"
        },
        {
          "internalType": "bool",
          "name": "approved",
          "type": "bool"
        }
      ],
      "name": "setApprovalForAll",
      "outputs": [],
      "stateMutability": "nonpayable",
      "type": "function"
    },
    {
      "inputs": [
        {
          "internalType": "bytes4",
          "name": "interfaceId",
          "type": "bytes4"
        }
      ],
      "name": "supportsInterface",
      "outputs": [
        {
          "internalType": "bool",
          "name": "",
          "type": "bool"
        }
      ],
      "stateMutability": "view",
      "type": "function"
    },
    {
      "inputs": [],
      "name": "symbol",
      "outputs": [
        {
          "internalType": "string",
          "name": "",
          "type": "string"
        }
      ],
      "stateMutability": "view",
      "type": "function"
    },
    {
      "inputs": [
        {
          "internalType": "uint256",
          "name": "tokenId",
          "type": "uint256"
        }
      ],
      "name": "tokenURI",
      "outputs": [
        {
          "internalType": "string",
          "name": "",
          "type": "string"
        }
      ],
      "stateMutability": "view",
      "type": "function"
    },
    {
      "inputs": [
        {
          "internalType": "address",
          "name": "from",
          "type": "address"
        },
        {
          "internalType": "address",
          "name": "to",
          "type": "address"
        },
        {
          "internalType": "uint256",
          "name": "tokenId",
          "type": "uint256"
        }
      ],
      "name": "transferFrom",
      "outputs": [],
      "stateMutability": "nonpayable",
      "type": "function"
    },
    {
      "inputs": [
        {
          "internalType": "address",
          "name": "newOwner",
          "type": "address"
        }
      ],
      "name": "transferOwnership",
      "outputs": [],
      "stateMutability": "nonpayable",
      "type": "function"
    },
    {
      "inputs": [
        {
          "internalType": "uint256",
          "name": "_price",
          "type": "uint256"
        }
      ],
      "name": "setListingPrice",
      "outputs": [],
      "stateMutability": "nonpayable",
      "type": "function"
    },
    {
      "inputs": [
        {
          "internalType": "uint256",
          "name": "tokenId",
          "type": "uint256"
        }
      ],
      "name": "getNftItem",
      "outputs": [
        {
          "components": [
            {
              "internalType": "uint256",
              "name": "tokenId",
              "type": "uint256"
            },
            {
              "internalType": "uint256",
              "name": "price",
              "type": "uint256"
            },
            {
              "internalType": "address",
              "name": "creator",
              "type": "address"
            },
            {
              "internalType": "bool",
              "name": "isListed",
              "type": "bool"
            }
          ],
          "internalType": "struct NftMarket.NftItem",
          "name": "",
          "type": "tuple"
        }
      ],
      "stateMutability": "view",
      "type": "function"
    },
    {
      "inputs": [],
      "name": "listedItemsCount",
      "outputs": [
        {
          "internalType": "uint256",
          "name": "",
          "type": "uint256"
        }
      ],
      "stateMutability": "view",
      "type": "function"
    },
    {
      "inputs": [
        {
          "internalType": "string",
          "name": "tokenURI",
          "type": "string"
        }
      ],
      "name": "tokenURIExists",
      "outputs": [
        {
          "internalType": "bool",
          "name": "",
          "type": "bool"
        }
      ],
      "stateMutability": "view",
      "type": "function"
    },
    {
      "inputs": [],
      "name": "totalSupply",
      "outputs": [
        {
          "internalType": "uint256",
          "name": "",
          "type": "uint256"
        }
      ],
      "stateMutability": "view",
      "type": "function"
    },
    {
      "inputs": [
        {
          "internalType": "uint256",
          "name": "index",
          "type": "uint256"
        }
      ],
      "name": "tokenByIndex",
      "outputs": [
        {
          "internalType": "uint256",
          "name": "",
          "type": "uint256"
        }
      ],
      "stateMutability": "view",
      "type": "function"
    },
    {
      "inputs": [
        {
          "internalType": "address",
          "name": "owner",
          "type": "address"
        },
        {
          "internalType": "uint256",
          "name": "index",
          "type": "uint256"
        }
      ],
      "name": "tokenOfOwnerByIndex",
      "outputs": [
        {
          "internalType": "uint256",
          "name": "",
          "type": "uint256"
        }
      ],
      "stateMutability": "view",
      "type": "function"
    },
    {
      "inputs": [
        {
          "internalType": "uint256",
          "name": "tokenId",
          "type": "uint256"
        },
        {
          "internalType": "uint256",
          "name": "price",
          "type": "uint256"
        }
      ],
      "name": "placeNftOnSale",
      "outputs": [],
      "stateMutability": "payable",
      "type": "function"
    },
    {
      "inputs": [],
      "name": "getAllNftsOnSale",
      "outputs": [
        {
          "components": [
            {
              "internalType": "uint256",
              "name": "tokenId",
              "type": "uint256"
            },
            {
              "internalType": "uint256",
              "name": "price",
              "type": "uint256"
            },
            {
              "internalType": "address",
              "name": "creator",
              "type": "address"
            },
            {
              "internalType": "bool",
              "name": "isListed",
              "type": "bool"
            }
          ],
          "internalType": "struct NftMarket.NftItem[]",
          "name": "",
          "type": "tuple[]"
        }
      ],
      "stateMutability": "view",
      "type": "function"
    },
    {
      "inputs": [],
      "name": "getOwnedNfts",
      "outputs": [
        {
          "components": [
            {
              "internalType": "uint256",
              "name": "tokenId",
              "type": "uint256"
            },
            {
              "internalType": "uint256",
              "name": "price",
              "type": "uint256"
            },
            {
              "internalType": "address",
              "name": "creator",
              "type": "address"
            },
            {
              "internalType": "bool",
              "name": "isListed",
              "type": "bool"
            }
          ],
          "internalType": "struct NftMarket.NftItem[]",
          "name": "",
          "type": "tuple[]"
        }
      ],
      "stateMutability": "view",
      "type": "function"
    },
    {
      "inputs": [
        {
          "internalType": "string",
          "name": "tokenURI",
          "type": "string"
        },
        {
          "internalType": "uint256",
          "name": "price",
          "type": "uint256"
        }
      ],
      "name": "mintToken",
      "outputs": [
        {
          "internalType": "uint256",
          "name": "",
          "type": "uint256"
        }
      ],
      "stateMutability": "payable",
      "type": "function"
    },
    {
      "inputs": [
        {
          "internalType": "uint256",
          "name": "tokenId",
          "type": "uint256"
        }
      ],
      "name": "buyNft",
      "outputs": [],
      "stateMutability": "payable",
      "type": "function"
    }
  ],
  "bytecode": "0x60806040526658d15e176280006008553480156200001c57600080fd5b506040518060400160405280600c81526020017f4372656174757265734e465400000000000000000000000000000000000000008152506040518060400160405280600481526020017f434e46540000000000000000000000000000000000000000000000000000000081525081600090816200009a91906200041d565b508060019081620000ac91906200041d565b505050620000cf620000c3620000d560201b60201c565b620000dd60201b60201c565b62000504565b600033905090565b6000600760009054906101000a900473ffffffffffffffffffffffffffffffffffffffff16905081600760006101000a81548173ffffffffffffffffffffffffffffffffffffffff021916908373ffffffffffffffffffffffffffffffffffffffff1602179055508173ffffffffffffffffffffffffffffffffffffffff168173ffffffffffffffffffffffffffffffffffffffff167f8be0079c531659141344cd1fd0a4f28419497f9722a3daafe3b4186f6b6457e060405160405180910390a35050565b600081519050919050565b7f4e487b7100000000000000000000000000000000000000000000000000000000600052604160045260246000fd5b7f4e487b7100000000000000000000000000000000000000000000000000000000600052602260045260246000fd5b600060028204905060018216806200022557607f821691505b6020821081036200023b576200023a620001dd565b5b50919050565b60008190508160005260206000209050919050565b60006020601f8301049050919050565b600082821b905092915050565b600060088302620002a57fffffffffffffffffffffffffffffffffffffffffffffffffffffffffffffffff8262000266565b620002b1868362000266565b95508019841693508086168417925050509392505050565b6000819050919050565b6000819050919050565b6000620002fe620002f8620002f284620002c9565b620002d3565b620002c9565b9050919050565b6000819050919050565b6200031a83620002dd565b62000332620003298262000305565b84845462000273565b825550505050565b600090565b620003496200033a565b620003568184846200030f565b505050565b5b818110156200037e57620003726000826200033f565b6001810190506200035c565b5050565b601f821115620003cd57620003978162000241565b620003a28462000256565b81016020851015620003b2578190505b620003ca620003c18562000256565b8301826200035b565b50505b505050565b600082821c905092915050565b6000620003f260001984600802620003d2565b1980831691505092915050565b60006200040d8383620003df565b9150826002028217905092915050565b6200042882620001a3565b67ffffffffffffffff811115620004445762000443620001ae565b5b6200045082546200020c565b6200045d82828562000382565b600060209050601f83116001811462000495576000841562000480578287015190505b6200048c8582620003ff565b865550620004fc565b601f198416620004a58662000241565b60005b82811015620004cf57848901518255600182019150602085019450602081019050620004a8565b86831015620004ef5784890151620004eb601f891682620003df565b8355505b6001600288020188555050505b505050505050565b614d8a80620005146000396000f3fe6080604052600436106101c25760003560e01c80636f1a0af5116100f7578063a22cb46511610095578063c87b56dd11610064578063c87b56dd14610651578063ccb4918d1461068e578063e985e9c5146106b9578063f2fde38b146106f6576101c2565b8063a22cb465146105a4578063b88d4fde146105cd578063c046372c146105f6578063c78f19f914610626576101c2565b8063715018a6116100d1578063715018a61461050e5780637c726b69146105255780638da5cb5b1461054e57806395d89b4114610579576101c2565b80636f1a0af51461046957806370a08231146104a657806370cbcb43146104e3576101c2565b8063243adbdd1161016457806342842e0e1161013e57806342842e0e1461038957806343d32ae7146103b25780634f6ccce7146103ef5780636352211e1461042c576101c2565b8063243adbdd146103055780632f745c591461032157806336b536be1461035e576101c2565b8063095ea7b3116101a0578063095ea7b31461026c57806318160ddd1461029557806321f422e5146102c057806323b872dd146102dc576101c2565b806301ffc9a7146101c757806306fdde0314610204578063081812fc1461022f575b600080fd5b3480156101d357600080fd5b506101ee60048036038101906101e99190612f5f565b61071f565b6040516101fb9190612fa7565b60405180910390f35b34801561021057600080fd5b50610219610801565b604051610226919061305b565b60405180910390f35b34801561023b57600080fd5b50610256600480360381019061025191906130b3565b610893565b6040516102639190613121565b60405180910390f35b34801561027857600080fd5b50610293600480360381019061028e9190613168565b610918565b005b3480156102a157600080fd5b506102aa610a2f565b6040516102b791906131b7565b60405180910390f35b6102da60048036038101906102d591906131d2565b610a3c565b005b3480156102e857600080fd5b5061030360048036038101906102fe9190613212565b610bf7565b005b61031f600480360381019061031a91906130b3565b610c57565b005b34801561032d57600080fd5b5061034860048036038101906103439190613168565b610dbf565b60405161035591906131b7565b60405180910390f35b34801561036a57600080fd5b50610373610e64565b6040516103809190613396565b60405180910390f35b34801561039557600080fd5b506103b060048036038101906103ab9190613212565b610ffe565b005b3480156103be57600080fd5b506103d960048036038101906103d491906134ed565b61101e565b6040516103e69190612fa7565b60405180910390f35b3480156103fb57600080fd5b50610416600480360381019061041191906130b3565b61105a565b60405161042391906131b7565b60405180910390f35b34801561043857600080fd5b50610453600480360381019061044e91906130b3565b6110cb565b6040516104609190613121565b60405180910390f35b34801561047557600080fd5b50610490600480360381019061048b91906130b3565b61117c565b60405161049d919061358b565b60405180910390f35b3480156104b257600080fd5b506104cd60048036038101906104c891906135a6565b61122e565b6040516104da91906131b7565b60405180910390f35b3480156104ef57600080fd5b506104f86112e5565b6040516105059190613396565b60405180910390f35b34801561051a57600080fd5b50610523611449565b005b34801561053157600080fd5b5061054c600480360381019061054791906130b3565b6114d1565b005b34801561055a57600080fd5b5061056361159a565b6040516105709190613121565b60405180910390f35b34801561058557600080fd5b5061058e6115c4565b60405161059b919061305b565b60405180910390f35b3480156105b057600080fd5b506105cb60048036038101906105c691906135ff565b611656565b005b3480156105d957600080fd5b506105f460048036038101906105ef91906136e0565b61166c565b005b610610600480360381019061060b9190613763565b6116ce565b60405161061d91906131b7565b60405180910390f35b34801561063257600080fd5b5061063b6117de565b60405161064891906131b7565b60405180910390f35b34801561065d57600080fd5b50610678600480360381019061067391906130b3565b6117e4565b604051610685919061305b565b60405180910390f35b34801561069a57600080fd5b506106a3611935565b6040516106b091906131b7565b60405180910390f35b3480156106c557600080fd5b506106e060048036038101906106db91906137bf565b611946565b6040516106ed9190612fa7565b60405180910390f35b34801561070257600080fd5b5061071d600480360381019061071891906135a6565b6119da565b005b60007f80ac58cd000000000000000000000000000000000000000000000000000000007bffffffffffffffffffffffffffffffffffffffffffffffffffffffff1916827bffffffffffffffffffffffffffffffffffffffffffffffffffffffff191614806107ea57507f5b5e139f000000000000000000000000000000000000000000000000000000007bffffffffffffffffffffffffffffffffffffffffffffffffffffffff1916827bffffffffffffffffffffffffffffffffffffffffffffffffffffffff1916145b806107fa57506107f982611ad1565b5b9050919050565b6060600080546108109061382e565b80601f016020809104026020016040519081016040528092919081815260200182805461083c9061382e565b80156108895780601f1061085e57610100808354040283529160200191610889565b820191906000526020600020905b81548152906001019060200180831161086c57829003601f168201915b5050505050905090565b600061089e82611b3b565b6108dd576040517f08c379a00000000000000000000000000000000000000000000000000000000081526004016108d4906138d1565b60405180910390fd5b6004600083815260200190815260200160002060009054906101000a900473ffffffffffffffffffffffffffffffffffffffff169050919050565b6000610923826110cb565b90508073ffffffffffffffffffffffffffffffffffffffff168373ffffffffffffffffffffffffffffffffffffffff1603610993576040517f08c379a000000000000000000000000000000000000000000000000000000000815260040161098a90613963565b60405180910390fd5b8073ffffffffffffffffffffffffffffffffffffffff166109b2611ba7565b73ffffffffffffffffffffffffffffffffffffffff1614806109e157506109e0816109db611ba7565b611946565b5b610a20576040517f08c379a0000000000000000000000000000000000000000000000000000000008152600401610a17906139f5565b60405180910390fd5b610a2a8383611baf565b505050565b6000600f80549050905090565b3373ffffffffffffffffffffffffffffffffffffffff16610a5c836110cb565b73ffffffffffffffffffffffffffffffffffffffff1614610ab2576040517f08c379a0000000000000000000000000000000000000000000000000000000008152600401610aa990613a87565b60405180910390fd5b60001515600c600084815260200190815260200160002060020160149054906101000a900460ff16151514610b1c576040517f08c379a0000000000000000000000000000000000000000000000000000000008152600401610b1390613af3565b60405180910390fd5b600854341015610b61576040517f08c379a0000000000000000000000000000000000000000000000000000000008152600401610b5890613b85565b60405180910390fd5b80600c6000848152602001908152602001600020600101819055506001600c600084815260200190815260200160002060020160146101000a81548160ff021916908315150217905550610bb56009611c68565b7f470031062672bc0246e132c723a729c4676710ec663a29e86c88678032daddea8282336001604051610beb9493929190613ba5565b60405180910390a15050565b610c08610c02611ba7565b82611c7e565b610c47576040517f08c379a0000000000000000000000000000000000000000000000000000000008152600401610c3e90613c5c565b60405180910390fd5b610c52838383611d5c565b505050565b6000600c60008381526020019081526020016000206001015490506000610c7d836110cb565b90508073ffffffffffffffffffffffffffffffffffffffff163373ffffffffffffffffffffffffffffffffffffffff1603610ced576040517f08c379a0000000000000000000000000000000000000000000000000000000008152600401610ce490613cc8565b60405180910390fd5b813414610d2f576040517f08c379a0000000000000000000000000000000000000000000000000000000008152600401610d2690613d34565b60405180910390fd5b6000600c600085815260200190815260200160002060020160146101000a81548160ff021916908315150217905550610d686009611fc2565b610d73813385611d5c565b8073ffffffffffffffffffffffffffffffffffffffff166108fc349081150290604051600060405180830381858888f19350505050158015610db9573d6000803e3d6000fd5b50505050565b6000610dca8361122e565b8210610e0b576040517f08c379a0000000000000000000000000000000000000000000000000000000008152600401610e0290613da0565b60405180910390fd5b600d60008473ffffffffffffffffffffffffffffffffffffffff1673ffffffffffffffffffffffffffffffffffffffff168152602001908152602001600020600083815260200190815260200160002054905092915050565b60606000610e70610a2f565b9050600080610e7f600961201e565b67ffffffffffffffff811115610e9857610e976133c2565b5b604051908082528060200260200182016040528015610ed157816020015b610ebe612eb3565b815260200190600190039081610eb65790505b50905060005b83811015610ff4576000610eea8261105a565b90506000600c60008381526020019081526020016000209050600115158160020160149054906101000a900460ff16151503610fdf578060405180608001604052908160008201548152602001600182015481526020016002820160009054906101000a900473ffffffffffffffffffffffffffffffffffffffff1673ffffffffffffffffffffffffffffffffffffffff1673ffffffffffffffffffffffffffffffffffffffff1681526020016002820160149054906101000a900460ff161515151581525050848681518110610fc457610fc3613dc0565b5b6020026020010181905250600185610fdc9190613e1e565b94505b50508080610fec90613e74565b915050610ed7565b5080935050505090565b6110198383836040518060200160405280600081525061166c565b505050565b600060011515600b836040516110349190613ef8565b908152602001604051809103902060009054906101000a900460ff161515149050919050565b6000611064610a2f565b82106110a5576040517f08c379a000000000000000000000000000000000000000000000000000000000815260040161109c90613da0565b60405180910390fd5b600f82815481106110b9576110b8613dc0565b5b90600052602060002001549050919050565b6000806002600084815260200190815260200160002060009054906101000a900473ffffffffffffffffffffffffffffffffffffffff169050600073ffffffffffffffffffffffffffffffffffffffff168173ffffffffffffffffffffffffffffffffffffffff1603611173576040517f08c379a000000000000000000000000000000000000000000000000000000000815260040161116a90613f81565b60405180910390fd5b80915050919050565b611184612eb3565b600c600083815260200190815260200160002060405180608001604052908160008201548152602001600182015481526020016002820160009054906101000a900473ffffffffffffffffffffffffffffffffffffffff1673ffffffffffffffffffffffffffffffffffffffff1673ffffffffffffffffffffffffffffffffffffffff1681526020016002820160149054906101000a900460ff1615151515815250509050919050565b60008073ffffffffffffffffffffffffffffffffffffffff168273ffffffffffffffffffffffffffffffffffffffff160361129e576040517f08c379a000000000000000000000000000000000000000000000000000000000815260040161129590614013565b60405180910390fd5b600360008373ffffffffffffffffffffffffffffffffffffffff1673ffffffffffffffffffffffffffffffffffffffff168152602001908152602001600020549050919050565b606060006112f23361122e565b905060008167ffffffffffffffff8111156113105761130f6133c2565b5b60405190808252806020026020018201604052801561134957816020015b611336612eb3565b81526020019060019003908161132e5790505b50905060005b828110156114405760006113633383610dbf565b90506000600c600083815260200190815260200160002090508060405180608001604052908160008201548152602001600182015481526020016002820160009054906101000a900473ffffffffffffffffffffffffffffffffffffffff1673ffffffffffffffffffffffffffffffffffffffff1673ffffffffffffffffffffffffffffffffffffffff1681526020016002820160149054906101000a900460ff1615151515815250508484815181106114205761141f613dc0565b5b60200260200101819052505050808061143890613e74565b91505061134f565b50809250505090565b611451611ba7565b73ffffffffffffffffffffffffffffffffffffffff1661146f61159a565b73ffffffffffffffffffffffffffffffffffffffff16146114c5576040517f08c379a00000000000000000000000000000000000000000000000000000000081526004016114bc9061407f565b60405180910390fd5b6114cf600061202c565b565b6114d9611ba7565b73ffffffffffffffffffffffffffffffffffffffff166114f761159a565b73ffffffffffffffffffffffffffffffffffffffff161461154d576040517f08c379a00000000000000000000000000000000000000000000000000000000081526004016115449061407f565b60405180910390fd5b60008111611590576040517f08c379a000000000000000000000000000000000000000000000000000000000815260040161158790614111565b60405180910390fd5b8060088190555050565b6000600760009054906101000a900473ffffffffffffffffffffffffffffffffffffffff16905090565b6060600180546115d39061382e565b80601f01602080910402602001604051908101604052809291908181526020018280546115ff9061382e565b801561164c5780601f106116215761010080835404028352916020019161164c565b820191906000526020600020905b81548152906001019060200180831161162f57829003601f168201915b5050505050905090565b611668611661611ba7565b83836120f2565b5050565b61167d611677611ba7565b83611c7e565b6116bc576040517f08c379a00000000000000000000000000000000000000000000000000000000081526004016116b390613c5c565b60405180910390fd5b6116c88484848461225e565b50505050565b60006116d98361101e565b15611719576040517f08c379a00000000000000000000000000000000000000000000000000000000081526004016117109061417d565b60405180910390fd5b600854341461175d576040517f08c379a00000000000000000000000000000000000000000000000000000000081526004016117549061420f565b60405180910390fd5b611767600a611c68565b6117716009611c68565b600061177d600a61201e565b905061178933826122ba565b61179381856122d8565b61179d8184612345565b6001600b856040516117af9190613ef8565b908152602001604051809103902060006101000a81548160ff0219169083151502179055508091505092915050565b60085481565b60606117ef82611b3b565b61182e576040517f08c379a0000000000000000000000000000000000000000000000000000000008152600401611825906142a1565b60405180910390fd5b600060066000848152602001908152602001600020805461184e9061382e565b80601f016020809104026020016040519081016040528092919081815260200182805461187a9061382e565b80156118c75780601f1061189c576101008083540402835291602001916118c7565b820191906000526020600020905b8154815290600101906020018083116118aa57829003601f168201915b5050505050905060006118d8612495565b905060008151036118ed578192505050611930565b60008251111561192257808260405160200161190a9291906142c1565b60405160208183030381529060405292505050611930565b61192b846124ac565b925050505b919050565b6000611941600961201e565b905090565b6000600560008473ffffffffffffffffffffffffffffffffffffffff1673ffffffffffffffffffffffffffffffffffffffff16815260200190815260200160002060008373ffffffffffffffffffffffffffffffffffffffff1673ffffffffffffffffffffffffffffffffffffffff16815260200190815260200160002060009054906101000a900460ff16905092915050565b6119e2611ba7565b73ffffffffffffffffffffffffffffffffffffffff16611a0061159a565b73ffffffffffffffffffffffffffffffffffffffff1614611a56576040517f08c379a0000000000000000000000000000000000000000000000000000000008152600401611a4d9061407f565b60405180910390fd5b600073ffffffffffffffffffffffffffffffffffffffff168173ffffffffffffffffffffffffffffffffffffffff1603611ac5576040517f08c379a0000000000000000000000000000000000000000000000000000000008152600401611abc90614357565b60405180910390fd5b611ace8161202c565b50565b60007f01ffc9a7000000000000000000000000000000000000000000000000000000007bffffffffffffffffffffffffffffffffffffffffffffffffffffffff1916827bffffffffffffffffffffffffffffffffffffffffffffffffffffffff1916149050919050565b60008073ffffffffffffffffffffffffffffffffffffffff166002600084815260200190815260200160002060009054906101000a900473ffffffffffffffffffffffffffffffffffffffff1673ffffffffffffffffffffffffffffffffffffffff1614159050919050565b600033905090565b816004600083815260200190815260200160002060006101000a81548173ffffffffffffffffffffffffffffffffffffffff021916908373ffffffffffffffffffffffffffffffffffffffff160217905550808273ffffffffffffffffffffffffffffffffffffffff16611c22836110cb565b73ffffffffffffffffffffffffffffffffffffffff167f8c5be1e5ebec7d5bd14f71427d1e84f3dd0314c0f7b2291e5b200ac8c7c3b92560405160405180910390a45050565b6001816000016000828254019250508190555050565b6000611c8982611b3b565b611cc8576040517f08c379a0000000000000000000000000000000000000000000000000000000008152600401611cbf906143e9565b60405180910390fd5b6000611cd3836110cb565b90508073ffffffffffffffffffffffffffffffffffffffff168473ffffffffffffffffffffffffffffffffffffffff161480611d155750611d148185611946565b5b80611d5357508373ffffffffffffffffffffffffffffffffffffffff16611d3b84610893565b73ffffffffffffffffffffffffffffffffffffffff16145b91505092915050565b8273ffffffffffffffffffffffffffffffffffffffff16611d7c826110cb565b73ffffffffffffffffffffffffffffffffffffffff1614611dd2576040517f08c379a0000000000000000000000000000000000000000000000000000000008152600401611dc99061447b565b60405180910390fd5b600073ffffffffffffffffffffffffffffffffffffffff168273ffffffffffffffffffffffffffffffffffffffff1603611e41576040517f08c379a0000000000000000000000000000000000000000000000000000000008152600401611e389061450d565b60405180910390fd5b611e4c838383612553565b611e57600082611baf565b6001600360008573ffffffffffffffffffffffffffffffffffffffff1673ffffffffffffffffffffffffffffffffffffffff1681526020019081526020016000206000828254611ea7919061452d565b925050819055506001600360008473ffffffffffffffffffffffffffffffffffffffff1673ffffffffffffffffffffffffffffffffffffffff1681526020019081526020016000206000828254611efe9190613e1e565b92505081905550816002600083815260200190815260200160002060006101000a81548173ffffffffffffffffffffffffffffffffffffffff021916908373ffffffffffffffffffffffffffffffffffffffff160217905550808273ffffffffffffffffffffffffffffffffffffffff168473ffffffffffffffffffffffffffffffffffffffff167fddf252ad1be2c89b69c2b068fc378daa952ba7f163c4a11628f55a4df523b3ef60405160405180910390a4611fbd838383612665565b505050565b6000816000015490506000811161200e576040517f08c379a0000000000000000000000000000000000000000000000000000000008152600401612005906145ad565b60405180910390fd5b6001810382600001819055505050565b600081600001549050919050565b6000600760009054906101000a900473ffffffffffffffffffffffffffffffffffffffff16905081600760006101000a81548173ffffffffffffffffffffffffffffffffffffffff021916908373ffffffffffffffffffffffffffffffffffffffff1602179055508173ffffffffffffffffffffffffffffffffffffffff168173ffffffffffffffffffffffffffffffffffffffff167f8be0079c531659141344cd1fd0a4f28419497f9722a3daafe3b4186f6b6457e060405160405180910390a35050565b8173ffffffffffffffffffffffffffffffffffffffff168373ffffffffffffffffffffffffffffffffffffffff1603612160576040517f08c379a000000000000000000000000000000000000000000000000000000000815260040161215790614619565b60405180910390fd5b80600560008573ffffffffffffffffffffffffffffffffffffffff1673ffffffffffffffffffffffffffffffffffffffff16815260200190815260200160002060008473ffffffffffffffffffffffffffffffffffffffff1673ffffffffffffffffffffffffffffffffffffffff16815260200190815260200160002060006101000a81548160ff0219169083151502179055508173ffffffffffffffffffffffffffffffffffffffff168373ffffffffffffffffffffffffffffffffffffffff167f17307eab39ab6107e8899845ad3d59bd9653f200f220920489ca2b5937696c31836040516122519190612fa7565b60405180910390a3505050565b612269848484611d5c565b6122758484848461266a565b6122b4576040517f08c379a00000000000000000000000000000000000000000000000000000000081526004016122ab906146ab565b60405180910390fd5b50505050565b6122d48282604051806020016040528060008152506127f1565b5050565b6122e182611b3b565b612320576040517f08c379a00000000000000000000000000000000000000000000000000000000081526004016123179061473d565b60405180910390fd5b806006600084815260200190815260200160002090816123409190614909565b505050565b60008111612388576040517f08c379a000000000000000000000000000000000000000000000000000000000815260040161237f90614a27565b60405180910390fd5b60405180608001604052808381526020018281526020013373ffffffffffffffffffffffffffffffffffffffff16815260200160011515815250600c6000848152602001908152602001600020600082015181600001556020820151816001015560408201518160020160006101000a81548173ffffffffffffffffffffffffffffffffffffffff021916908373ffffffffffffffffffffffffffffffffffffffff16021790555060608201518160020160146101000a81548160ff0219169083151502179055509050507f470031062672bc0246e132c723a729c4676710ec663a29e86c88678032daddea82823360016040516124899493929190613ba5565b60405180910390a15050565b606060405180602001604052806000815250905090565b60606124b782611b3b565b6124f6576040517f08c379a00000000000000000000000000000000000000000000000000000000081526004016124ed90614ab9565b60405180910390fd5b6000612500612495565b90506000815111612520576040518060200160405280600081525061254b565b8061252a8461284c565b60405160200161253b9291906142c1565b6040516020818303038152906040525b915050919050565b61255e8383836129ac565b600073ffffffffffffffffffffffffffffffffffffffff168373ffffffffffffffffffffffffffffffffffffffff16036125a05761259b816129b1565b6125df565b8173ffffffffffffffffffffffffffffffffffffffff168373ffffffffffffffffffffffffffffffffffffffff16146125de576125dd83826129fa565b5b5b600073ffffffffffffffffffffffffffffffffffffffff168273ffffffffffffffffffffffffffffffffffffffff16036126215761261c81612b67565b612660565b8273ffffffffffffffffffffffffffffffffffffffff168273ffffffffffffffffffffffffffffffffffffffff161461265f5761265e8282612c38565b5b5b505050565b505050565b600061268b8473ffffffffffffffffffffffffffffffffffffffff16612cb7565b156127e4578373ffffffffffffffffffffffffffffffffffffffff1663150b7a026126b4611ba7565b8786866040518563ffffffff1660e01b81526004016126d69493929190614b2e565b6020604051808303816000875af192505050801561271257506040513d601f19601f8201168201806040525081019061270f9190614b8f565b60015b612794573d8060008114612742576040519150601f19603f3d011682016040523d82523d6000602084013e612747565b606091505b50600081510361278c576040517f08c379a0000000000000000000000000000000000000000000000000000000008152600401612783906146ab565b60405180910390fd5b805181602001fd5b63150b7a0260e01b7bffffffffffffffffffffffffffffffffffffffffffffffffffffffff1916817bffffffffffffffffffffffffffffffffffffffffffffffffffffffff1916149150506127e9565b600190505b949350505050565b6127fb8383612cda565b612808600084848461266a565b612847576040517f08c379a000000000000000000000000000000000000000000000000000000000815260040161283e906146ab565b60405180910390fd5b505050565b606060008203612893576040518060400160405280600181526020017f300000000000000000000000000000000000000000000000000000000000000081525090506129a7565b600082905060005b600082146128c55780806128ae90613e74565b915050600a826128be9190614beb565b915061289b565b60008167ffffffffffffffff8111156128e1576128e06133c2565b5b6040519080825280601f01601f1916602001820160405280156129135781602001600182028036833780820191505090505b5090505b600085146129a05760018261292c919061452d565b9150600a8561293b9190614c1c565b60306129479190613e1e565b60f81b81838151811061295d5761295c613dc0565b5b60200101907effffffffffffffffffffffffffffffffffffffffffffffffffffffffffffff1916908160001a905350600a856129999190614beb565b9450612917565b8093505050505b919050565b505050565b600f805490506010600083815260200190815260200160002081905550600f81908060018154018082558091505060019003906000526020600020016000909190919091505550565b60006001612a078461122e565b612a11919061452d565b90506000600e6000848152602001908152602001600020549050818114612af6576000600d60008673ffffffffffffffffffffffffffffffffffffffff1673ffffffffffffffffffffffffffffffffffffffff168152602001908152602001600020600084815260200190815260200160002054905080600d60008773ffffffffffffffffffffffffffffffffffffffff1673ffffffffffffffffffffffffffffffffffffffff16815260200190815260200160002060008481526020019081526020016000208190555081600e600083815260200190815260200160002081905550505b600e600084815260200190815260200160002060009055600d60008573ffffffffffffffffffffffffffffffffffffffff1673ffffffffffffffffffffffffffffffffffffffff16815260200190815260200160002060008381526020019081526020016000206000905550505050565b60006001600f80549050612b7b919061452d565b90506000601060008481526020019081526020016000205490506000600f8381548110612bab57612baa613dc0565b5b9060005260206000200154905080600f8381548110612bcd57612bcc613dc0565b5b90600052602060002001819055508160106000838152602001908152602001600020819055506010600085815260200190815260200160002060009055600f805480612c1c57612c1b614c4d565b5b6001900381819060005260206000200160009055905550505050565b6000612c438361122e565b905081600d60008573ffffffffffffffffffffffffffffffffffffffff1673ffffffffffffffffffffffffffffffffffffffff16815260200190815260200160002060008381526020019081526020016000208190555080600e600084815260200190815260200160002081905550505050565b6000808273ffffffffffffffffffffffffffffffffffffffff163b119050919050565b600073ffffffffffffffffffffffffffffffffffffffff168273ffffffffffffffffffffffffffffffffffffffff1603612d49576040517f08c379a0000000000000000000000000000000000000000000000000000000008152600401612d4090614cc8565b60405180910390fd5b612d5281611b3b565b15612d92576040517f08c379a0000000000000000000000000000000000000000000000000000000008152600401612d8990614d34565b60405180910390fd5b612d9e60008383612553565b6001600360008473ffffffffffffffffffffffffffffffffffffffff1673ffffffffffffffffffffffffffffffffffffffff1681526020019081526020016000206000828254612dee9190613e1e565b92505081905550816002600083815260200190815260200160002060006101000a81548173ffffffffffffffffffffffffffffffffffffffff021916908373ffffffffffffffffffffffffffffffffffffffff160217905550808273ffffffffffffffffffffffffffffffffffffffff16600073ffffffffffffffffffffffffffffffffffffffff167fddf252ad1be2c89b69c2b068fc378daa952ba7f163c4a11628f55a4df523b3ef60405160405180910390a4612eaf60008383612665565b5050565b60405180608001604052806000815260200160008152602001600073ffffffffffffffffffffffffffffffffffffffff1681526020016000151581525090565b6000604051905090565b600080fd5b600080fd5b60007fffffffff0000000000000000000000000000000000000000000000000000000082169050919050565b612f3c81612f07565b8114612f4757600080fd5b50565b600081359050612f5981612f33565b92915050565b600060208284031215612f7557612f74612efd565b5b6000612f8384828501612f4a565b91505092915050565b60008115159050919050565b612fa181612f8c565b82525050565b6000602082019050612fbc6000830184612f98565b92915050565b600081519050919050565b600082825260208201905092915050565b60005b83811015612ffc578082015181840152602081019050612fe1565b8381111561300b576000848401525b50505050565b6000601f19601f8301169050919050565b600061302d82612fc2565b6130378185612fcd565b9350613047818560208601612fde565b61305081613011565b840191505092915050565b600060208201905081810360008301526130758184613022565b905092915050565b6000819050919050565b6130908161307d565b811461309b57600080fd5b50565b6000813590506130ad81613087565b92915050565b6000602082840312156130c9576130c8612efd565b5b60006130d78482850161309e565b91505092915050565b600073ffffffffffffffffffffffffffffffffffffffff82169050919050565b600061310b826130e0565b9050919050565b61311b81613100565b82525050565b60006020820190506131366000830184613112565b92915050565b61314581613100565b811461315057600080fd5b50565b6000813590506131628161313c565b92915050565b6000806040838503121561317f5761317e612efd565b5b600061318d85828601613153565b925050602061319e8582860161309e565b9150509250929050565b6131b18161307d565b82525050565b60006020820190506131cc60008301846131a8565b92915050565b600080604083850312156131e9576131e8612efd565b5b60006131f78582860161309e565b92505060206132088582860161309e565b9150509250929050565b60008060006060848603121561322b5761322a612efd565b5b600061323986828701613153565b935050602061324a86828701613153565b925050604061325b8682870161309e565b9150509250925092565b600081519050919050565b600082825260208201905092915050565b6000819050602082019050919050565b61329a8161307d565b82525050565b6132a981613100565b82525050565b6132b881612f8c565b82525050565b6080820160008201516132d46000850182613291565b5060208201516132e76020850182613291565b5060408201516132fa60408501826132a0565b50606082015161330d60608501826132af565b50505050565b600061331f83836132be565b60808301905092915050565b6000602082019050919050565b600061334382613265565b61334d8185613270565b935061335883613281565b8060005b838110156133895781516133708882613313565b975061337b8361332b565b92505060018101905061335c565b5085935050505092915050565b600060208201905081810360008301526133b08184613338565b905092915050565b600080fd5b600080fd5b7f4e487b7100000000000000000000000000000000000000000000000000000000600052604160045260246000fd5b6133fa82613011565b810181811067ffffffffffffffff82111715613419576134186133c2565b5b80604052505050565b600061342c612ef3565b905061343882826133f1565b919050565b600067ffffffffffffffff821115613458576134576133c2565b5b61346182613011565b9050602081019050919050565b82818337600083830152505050565b600061349061348b8461343d565b613422565b9050828152602081018484840111156134ac576134ab6133bd565b5b6134b784828561346e565b509392505050565b600082601f8301126134d4576134d36133b8565b5b81356134e484826020860161347d565b91505092915050565b60006020828403121561350357613502612efd565b5b600082013567ffffffffffffffff81111561352157613520612f02565b5b61352d848285016134bf565b91505092915050565b60808201600082015161354c6000850182613291565b50602082015161355f6020850182613291565b50604082015161357260408501826132a0565b50606082015161358560608501826132af565b50505050565b60006080820190506135a06000830184613536565b92915050565b6000602082840312156135bc576135bb612efd565b5b60006135ca84828501613153565b91505092915050565b6135dc81612f8c565b81146135e757600080fd5b50565b6000813590506135f9816135d3565b92915050565b6000806040838503121561361657613615612efd565b5b600061362485828601613153565b9250506020613635858286016135ea565b9150509250929050565b600067ffffffffffffffff82111561365a576136596133c2565b5b61366382613011565b9050602081019050919050565b600061368361367e8461363f565b613422565b90508281526020810184848401111561369f5761369e6133bd565b5b6136aa84828561346e565b509392505050565b600082601f8301126136c7576136c66133b8565b5b81356136d7848260208601613670565b91505092915050565b600080600080608085870312156136fa576136f9612efd565b5b600061370887828801613153565b945050602061371987828801613153565b935050604061372a8782880161309e565b925050606085013567ffffffffffffffff81111561374b5761374a612f02565b5b613757878288016136b2565b91505092959194509250565b6000806040838503121561377a57613779612efd565b5b600083013567ffffffffffffffff81111561379857613797612f02565b5b6137a4858286016134bf565b92505060206137b58582860161309e565b9150509250929050565b600080604083850312156137d6576137d5612efd565b5b60006137e485828601613153565b92505060206137f585828601613153565b9150509250929050565b7f4e487b7100000000000000000000000000000000000000000000000000000000600052602260045260246000fd5b6000600282049050600182168061384657607f821691505b602082108103613859576138586137ff565b5b50919050565b7f4552433732313a20617070726f76656420717565727920666f72206e6f6e657860008201527f697374656e7420746f6b656e0000000000000000000000000000000000000000602082015250565b60006138bb602c83612fcd565b91506138c68261385f565b604082019050919050565b600060208201905081810360008301526138ea816138ae565b9050919050565b7f4552433732313a20617070726f76616c20746f2063757272656e74206f776e6560008201527f7200000000000000000000000000000000000000000000000000000000000000602082015250565b600061394d602183612fcd565b9150613958826138f1565b604082019050919050565b6000602082019050818103600083015261397c81613940565b9050919050565b7f4552433732313a20617070726f76652063616c6c6572206973206e6f74206f7760008201527f6e6572206e6f7220617070726f76656420666f7220616c6c0000000000000000602082015250565b60006139df603883612fcd565b91506139ea82613983565b604082019050919050565b60006020820190508181036000830152613a0e816139d2565b9050919050565b7f596f7520617265206e6f7420746865206f776e6572206f66207468697320746f60008201527f6b656e0000000000000000000000000000000000000000000000000000000000602082015250565b6000613a71602383612fcd565b9150613a7c82613a15565b604082019050919050565b60006020820190508181036000830152613aa081613a64565b9050919050565b7f5468697320746f6b656e20697320616c7265616479206c697374656400000000600082015250565b6000613add601c83612fcd565b9150613ae882613aa7565b602082019050919050565b60006020820190508181036000830152613b0c81613ad0565b9050919050565b7f5072696365206d757374206265206174206c6561737420746865206c6973746960008201527f6e67207072696365000000000000000000000000000000000000000000000000602082015250565b6000613b6f602883612fcd565b9150613b7a82613b13565b604082019050919050565b60006020820190508181036000830152613b9e81613b62565b9050919050565b6000608082019050613bba60008301876131a8565b613bc760208301866131a8565b613bd46040830185613112565b613be16060830184612f98565b95945050505050565b7f4552433732313a207472616e736665722063616c6c6572206973206e6f74206f60008201527f776e6572206e6f7220617070726f766564000000000000000000000000000000602082015250565b6000613c46603183612fcd565b9150613c5182613bea565b604082019050919050565b60006020820190508181036000830152613c7581613c39565b9050919050565b7f596f7520616c7265616479206f776e2074686973204e46540000000000000000600082015250565b6000613cb2601883612fcd565b9150613cbd82613c7c565b602082019050919050565b60006020820190508181036000830152613ce181613ca5565b9050919050565b7f506c65617365207375626d6974207468652061736b696e672070726963650000600082015250565b6000613d1e601e83612fcd565b9150613d2982613ce8565b602082019050919050565b60006020820190508181036000830152613d4d81613d11565b9050919050565b7f496e646578206f7574206f6620626f756e647300000000000000000000000000600082015250565b6000613d8a601383612fcd565b9150613d9582613d54565b602082019050919050565b60006020820190508181036000830152613db981613d7d565b9050919050565b7f4e487b7100000000000000000000000000000000000000000000000000000000600052603260045260246000fd5b7f4e487b7100000000000000000000000000000000000000000000000000000000600052601160045260246000fd5b6000613e298261307d565b9150613e348361307d565b9250827fffffffffffffffffffffffffffffffffffffffffffffffffffffffffffffffff03821115613e6957613e68613def565b5b828201905092915050565b6000613e7f8261307d565b91507fffffffffffffffffffffffffffffffffffffffffffffffffffffffffffffffff8203613eb157613eb0613def565b5b600182019050919050565b600081905092915050565b6000613ed282612fc2565b613edc8185613ebc565b9350613eec818560208601612fde565b80840191505092915050565b6000613f048284613ec7565b915081905092915050565b7f4552433732313a206f776e657220717565727920666f72206e6f6e657869737460008201527f656e7420746f6b656e0000000000000000000000000000000000000000000000602082015250565b6000613f6b602983612fcd565b9150613f7682613f0f565b604082019050919050565b60006020820190508181036000830152613f9a81613f5e565b9050919050565b7f4552433732313a2062616c616e636520717565727920666f7220746865207a6560008201527f726f206164647265737300000000000000000000000000000000000000000000602082015250565b6000613ffd602a83612fcd565b915061400882613fa1565b604082019050919050565b6000602082019050818103600083015261402c81613ff0565b9050919050565b7f4f776e61626c653a2063616c6c6572206973206e6f7420746865206f776e6572600082015250565b6000614069602083612fcd565b915061407482614033565b602082019050919050565b600060208201905081810360008301526140988161405c565b9050919050565b7f4c697374696e67207072696365206d757374206265206772656174657220746860008201527f616e203000000000000000000000000000000000000000000000000000000000602082015250565b60006140fb602483612fcd565b91506141068261409f565b604082019050919050565b6000602082019050818103600083015261412a816140ee565b9050919050565b7f546f6b656e2055524920616c7265616479206578697374730000000000000000600082015250565b6000614167601883612fcd565b915061417282614131565b602082019050919050565b600060208201905081810360008301526141968161415a565b9050919050565b7f5072696365206d75737420626520657175616c20746f206c697374696e67207060008201527f7269636500000000000000000000000000000000000000000000000000000000602082015250565b60006141f9602483612fcd565b91506142048261419d565b604082019050919050565b60006020820190508181036000830152614228816141ec565b9050919050565b7f45524337323155524953746f726167653a2055524920717565727920666f722060008201527f6e6f6e6578697374656e7420746f6b656e000000000000000000000000000000602082015250565b600061428b603183612fcd565b91506142968261422f565b604082019050919050565b600060208201905081810360008301526142ba8161427e565b9050919050565b60006142cd8285613ec7565b91506142d98284613ec7565b91508190509392505050565b7f4f776e61626c653a206e6577206f776e657220697320746865207a65726f206160008201527f6464726573730000000000000000000000000000000000000000000000000000602082015250565b6000614341602683612fcd565b915061434c826142e5565b604082019050919050565b6000602082019050818103600083015261437081614334565b9050919050565b7f4552433732313a206f70657261746f7220717565727920666f72206e6f6e657860008201527f697374656e7420746f6b656e0000000000000000000000000000000000000000602082015250565b60006143d3602c83612fcd565b91506143de82614377565b604082019050919050565b60006020820190508181036000830152614402816143c6565b9050919050565b7f4552433732313a207472616e736665722066726f6d20696e636f72726563742060008201527f6f776e6572000000000000000000000000000000000000000000000000000000602082015250565b6000614465602583612fcd565b915061447082614409565b604082019050919050565b6000602082019050818103600083015261449481614458565b9050919050565b7f4552433732313a207472616e7366657220746f20746865207a65726f2061646460008201527f7265737300000000000000000000000000000000000000000000000000000000602082015250565b60006144f7602483612fcd565b91506145028261449b565b604082019050919050565b60006020820190508181036000830152614526816144ea565b9050919050565b60006145388261307d565b91506145438361307d565b92508282101561455657614555613def565b5b828203905092915050565b7f436f756e7465723a2064656372656d656e74206f766572666c6f770000000000600082015250565b6000614597601b83612fcd565b91506145a282614561565b602082019050919050565b600060208201905081810360008301526145c68161458a565b9050919050565b7f4552433732313a20617070726f766520746f2063616c6c657200000000000000600082015250565b6000614603601983612fcd565b915061460e826145cd565b602082019050919050565b60006020820190508181036000830152614632816145f6565b9050919050565b7f4552433732313a207472616e7366657220746f206e6f6e20455243373231526560008201527f63656976657220696d706c656d656e7465720000000000000000000000000000602082015250565b6000614695603283612fcd565b91506146a082614639565b604082019050919050565b600060208201905081810360008301526146c481614688565b9050919050565b7f45524337323155524953746f726167653a2055524920736574206f66206e6f6e60008201527f6578697374656e7420746f6b656e000000000000000000000000000000000000602082015250565b6000614727602e83612fcd565b9150614732826146cb565b604082019050919050565b600060208201905081810360008301526147568161471a565b9050919050565b60008190508160005260206000209050919050565b60006020601f8301049050919050565b600082821b905092915050565b6000600883026147bf7fffffffffffffffffffffffffffffffffffffffffffffffffffffffffffffffff82614782565b6147c98683614782565b95508019841693508086168417925050509392505050565b6000819050919050565b60006148066148016147fc8461307d565b6147e1565b61307d565b9050919050565b6000819050919050565b614820836147eb565b61483461482c8261480d565b84845461478f565b825550505050565b600090565b61484961483c565b614854818484614817565b505050565b5b818110156148785761486d600082614841565b60018101905061485a565b5050565b601f8211156148bd5761488e8161475d565b61489784614772565b810160208510156148a6578190505b6148ba6148b285614772565b830182614859565b50505b505050565b600082821c905092915050565b60006148e0600019846008026148c2565b1980831691505092915050565b60006148f983836148cf565b9150826002028217905092915050565b61491282612fc2565b67ffffffffffffffff81111561492b5761492a6133c2565b5b614935825461382e565b61494082828561487c565b600060209050601f8311600181146149735760008415614961578287015190505b61496b85826148ed565b8655506149d3565b601f1984166149818661475d565b60005b828110156149a957848901518255600182019150602085019450602081019050614984565b868310156149c657848901516149c2601f8916826148cf565b8355505b6001600288020188555050505b505050505050565b7f5072696365206d757374206265206174206c6561737420312077656900000000600082015250565b6000614a11601c83612fcd565b9150614a1c826149db565b602082019050919050565b60006020820190508181036000830152614a4081614a04565b9050919050565b7f4552433732314d657461646174613a2055524920717565727920666f72206e6f60008201527f6e6578697374656e7420746f6b656e0000000000000000000000000000000000602082015250565b6000614aa3602f83612fcd565b9150614aae82614a47565b604082019050919050565b60006020820190508181036000830152614ad281614a96565b9050919050565b600081519050919050565b600082825260208201905092915050565b6000614b0082614ad9565b614b0a8185614ae4565b9350614b1a818560208601612fde565b614b2381613011565b840191505092915050565b6000608082019050614b436000830187613112565b614b506020830186613112565b614b5d60408301856131a8565b8181036060830152614b6f8184614af5565b905095945050505050565b600081519050614b8981612f33565b92915050565b600060208284031215614ba557614ba4612efd565b5b6000614bb384828501614b7a565b91505092915050565b7f4e487b7100000000000000000000000000000000000000000000000000000000600052601260045260246000fd5b6000614bf68261307d565b9150614c018361307d565b925082614c1157614c10614bbc565b5b828204905092915050565b6000614c278261307d565b9150614c328361307d565b925082614c4257614c41614bbc565b5b828206905092915050565b7f4e487b7100000000000000000000000000000000000000000000000000000000600052603160045260246000fd5b7f4552433732313a206d696e7420746f20746865207a65726f2061646472657373600082015250565b6000614cb2602083612fcd565b9150614cbd82614c7c565b602082019050919050565b60006020820190508181036000830152614ce181614ca5565b9050919050565b7f4552433732313a20746f6b656e20616c7265616479206d696e74656400000000600082015250565b6000614d1e601c83612fcd565b9150614d2982614ce8565b602082019050919050565b60006020820190508181036000830152614d4d81614d11565b905091905056fea2646970667358221220fdca7403bb938b1996988da8f4f591f70d1141b3c13eefe4b4142ac67cce50a064736f6c634300080f0033",
  "immutableReferences": {},
  "source": "// SPDX-License-Identifier: MIT\r\npragma solidity >=0.4.22 <0.9.0;\r\n\r\nimport \"@openzeppelin/contracts/token/ERC721/extensions/ERC721URIStorage.sol\";\r\nimport \"@openzeppelin/contracts/utils/Counters.sol\";\r\nimport \"@openzeppelin/contracts/access/Ownable.sol\";\r\n\r\ncontract NftMarket is ERC721URIStorage, Ownable {\r\n    using Counters for Counters.Counter;\r\n\r\n    struct NftItem {\r\n        uint256 tokenId;\r\n        uint256 price;\r\n        address creator;\r\n        bool isListed;\r\n    }\r\n\r\n    uint256 public listingPrice = 0.025 ether;\r\n\r\n    Counters.Counter private _listedItems;\r\n    Counters.Counter private _tokenIds;\r\n\r\n    mapping(string => bool) private _usedTokenURIs;\r\n    mapping(uint256 => NftItem) private _idToNftItem;\r\n\r\n    mapping(address => mapping(uint256 => uint256)) private _ownedTokens;\r\n    mapping(uint256 => uint256) private _idToOwnedIndex;\r\n\r\n    uint256[] private _allNfts;\r\n    mapping(uint256 => uint256) private _idToNftIndex;\r\n\r\n    event NftItemCreated(\r\n        uint256 tokenId,\r\n        uint256 price,\r\n        address creator,\r\n        bool isListed\r\n    );\r\n\r\n    constructor() ERC721(\"CreaturesNFT\", \"CNFT\") {}\r\n\r\n    function setListingPrice(uint256 _price) external onlyOwner {\r\n        require(_price > 0, \"Listing price must be greater than 0\");\r\n        listingPrice = _price;\r\n    }\r\n\r\n    function getNftItem(uint256 tokenId) public view returns (NftItem memory) {\r\n        return _idToNftItem[tokenId];\r\n    }\r\n\r\n    function listedItemsCount() public view returns (uint256) {\r\n        return _listedItems.current();\r\n    }\r\n\r\n    function tokenURIExists(string memory tokenURI) public view returns (bool) {\r\n        return _usedTokenURIs[tokenURI] == true;\r\n    }\r\n\r\n    function totalSupply() public view returns (uint256) {\r\n        return _allNfts.length;\r\n    }\r\n\r\n    function tokenByIndex(uint256 index) public view returns (uint256) {\r\n        require(index < totalSupply(), \"Index out of bounds\");\r\n        return _allNfts[index];\r\n    }\r\n\r\n    function tokenOfOwnerByIndex(address owner, uint256 index)\r\n        public\r\n        view\r\n        returns (uint256)\r\n    {\r\n        require(index < ERC721.balanceOf(owner), \"Index out of bounds\");\r\n        return _ownedTokens[owner][index];\r\n    }\r\n\r\n    function placeNftOnSale(uint256 tokenId, uint256 price) public payable {\r\n        require(\r\n            ERC721.ownerOf(tokenId) == msg.sender,\r\n            \"You are not the owner of this token\"\r\n        );\r\n        require(\r\n            _idToNftItem[tokenId].isListed == false,\r\n            \"This token is already listed\"\r\n        );\r\n        require(\r\n            msg.value >= listingPrice,\r\n            \"Price must be at least the listing price\"\r\n        );\r\n        _idToNftItem[tokenId].price = price;\r\n        _idToNftItem[tokenId].isListed = true;\r\n        _listedItems.increment();\r\n        emit NftItemCreated(tokenId, price, msg.sender, true);\r\n    }\r\n\r\n    function getAllNftsOnSale() public view returns (NftItem[] memory) {\r\n        uint256 allItemsCount = totalSupply();\r\n        uint256 currentIndex = 0;\r\n        NftItem[] memory items = new NftItem[](_listedItems.current());\r\n\r\n        for (uint256 i = 0; i < allItemsCount; i++) {\r\n            uint256 tokenId = tokenByIndex(i);\r\n            NftItem storage item = _idToNftItem[tokenId];\r\n            if (item.isListed == true) {\r\n                items[currentIndex] = item;\r\n                currentIndex += 1;\r\n            }\r\n        }\r\n\r\n        return items;\r\n    }\r\n\r\n    function getOwnedNfts() public view returns (NftItem[] memory) {\r\n        uint256 ownedItemsCount = ERC721.balanceOf(msg.sender);\r\n        NftItem[] memory items = new NftItem[](ownedItemsCount);\r\n\r\n        for (uint256 i = 0; i < ownedItemsCount; i++) {\r\n            uint256 tokenId = tokenOfOwnerByIndex(msg.sender, i);\r\n            NftItem storage item = _idToNftItem[tokenId];\r\n            items[i] = item;\r\n        }\r\n\r\n        return items;\r\n    }\r\n\r\n    function mintToken(string memory tokenURI, uint256 price)\r\n        public\r\n        payable\r\n        returns (uint256)\r\n    {\r\n        require(!tokenURIExists(tokenURI), \"Token URI already exists\");\r\n        require(\r\n            msg.value == listingPrice,\r\n            \"Price must be equal to listing price\"\r\n        );\r\n\r\n        _tokenIds.increment();\r\n        _listedItems.increment();\r\n\r\n        uint256 newTokenId = _tokenIds.current();\r\n\r\n        _safeMint(msg.sender, newTokenId);\r\n        _setTokenURI(newTokenId, tokenURI);\r\n        _createNftItem(newTokenId, price);\r\n        _usedTokenURIs[tokenURI] = true;\r\n\r\n        return newTokenId;\r\n    }\r\n\r\n    function buyNft(uint256 tokenId) public payable {\r\n        uint256 price = _idToNftItem[tokenId].price;\r\n        address owner = ERC721.ownerOf(tokenId);\r\n\r\n        require(msg.sender != owner, \"You already own this NFT\");\r\n        require(msg.value == price, \"Please submit the asking price\");\r\n\r\n        _idToNftItem[tokenId].isListed = false;\r\n        _listedItems.decrement();\r\n\r\n        _transfer(owner, msg.sender, tokenId);\r\n        payable(owner).transfer(msg.value);\r\n    }\r\n\r\n    function _createNftItem(uint256 tokenId, uint256 price) private {\r\n        require(price > 0, \"Price must be at least 1 wei\");\r\n\r\n        _idToNftItem[tokenId] = NftItem(tokenId, price, msg.sender, true);\r\n\r\n        emit NftItemCreated(tokenId, price, msg.sender, true);\r\n    }\r\n\r\n    function _beforeTokenTransfer(\r\n        address from,\r\n        address to,\r\n        uint256 tokenId\r\n    ) internal virtual override {\r\n        super._beforeTokenTransfer(from, to, tokenId);\r\n\r\n        // minting token\r\n        if (from == address(0)) {\r\n            _addTokenToAllTokensEnumeration(tokenId);\r\n        } else if (from != to) {\r\n            _removeTokenFromOwnerEnumeration(from, tokenId);\r\n        }\r\n\r\n        if (to == address(0)) {\r\n            _removeTokenFromAllTokensEnumeration(tokenId);\r\n        } else if (to != from) {\r\n            _addTokenToOwnerEnumeration(to, tokenId);\r\n        }\r\n    }\r\n\r\n    function _addTokenToAllTokensEnumeration(uint256 tokenId) private {\r\n        _idToNftIndex[tokenId] = _allNfts.length;\r\n        _allNfts.push(tokenId);\r\n    }\r\n\r\n    function _addTokenToOwnerEnumeration(address to, uint256 tokenId) private {\r\n        uint256 length = ERC721.balanceOf(to);\r\n        _ownedTokens[to][length] = tokenId;\r\n        _idToOwnedIndex[tokenId] = length;\r\n    }\r\n\r\n    function _removeTokenFromOwnerEnumeration(address from, uint256 tokenId)\r\n        private\r\n    {\r\n        uint256 lastTokenIndex = ERC721.balanceOf(from) - 1;\r\n        uint256 tokenIndex = _idToOwnedIndex[tokenId];\r\n\r\n        if (tokenIndex != lastTokenIndex) {\r\n            uint256 lastTokenId = _ownedTokens[from][lastTokenIndex];\r\n\r\n            _ownedTokens[from][tokenIndex] = lastTokenId;\r\n            _idToOwnedIndex[lastTokenId] = tokenIndex;\r\n        }\r\n\r\n        delete _idToOwnedIndex[tokenId];\r\n        delete _ownedTokens[from][lastTokenIndex];\r\n    }\r\n\r\n    function _removeTokenFromAllTokensEnumeration(uint256 tokenId) private {\r\n        uint256 lastTokenIndex = _allNfts.length - 1;\r\n        uint256 tokenIndex = _idToNftIndex[tokenId];\r\n        uint256 lastTokenId = _allNfts[lastTokenIndex];\r\n        _allNfts[tokenIndex] = lastTokenId;\r\n        _idToNftIndex[lastTokenId] = tokenIndex;\r\n\r\n        delete _idToNftIndex[tokenId];\r\n        _allNfts.pop();\r\n    }\r\n}\r\n",
  "sourcePath": "C:\\Users\\velve\\Desktop\\nft-marketplace\\contracts\\NftMarket.sol",
  "compiler": {
    "name": "solc",
    "version": "0.8.15+commit.e14f2714.Emscripten.clang"
  },
  "schemaVersion": "3.4.3",
  "updatedAt": "2022-06-28T16:30:11.825Z",
  "devdoc": {
    "kind": "dev",
    "methods": {
      "approve(address,uint256)": {
        "details": "See {IERC721-approve}."
      },
      "balanceOf(address)": {
        "details": "See {IERC721-balanceOf}."
      },
      "getApproved(uint256)": {
        "details": "See {IERC721-getApproved}."
      },
      "isApprovedForAll(address,address)": {
        "details": "See {IERC721-isApprovedForAll}."
      },
      "name()": {
        "details": "See {IERC721Metadata-name}."
      },
      "owner()": {
        "details": "Returns the address of the current owner."
      },
      "ownerOf(uint256)": {
        "details": "See {IERC721-ownerOf}."
      },
      "renounceOwnership()": {
        "details": "Leaves the contract without owner. It will not be possible to call `onlyOwner` functions anymore. Can only be called by the current owner. NOTE: Renouncing ownership will leave the contract without an owner, thereby removing any functionality that is only available to the owner."
      },
      "safeTransferFrom(address,address,uint256)": {
        "details": "See {IERC721-safeTransferFrom}."
      },
      "safeTransferFrom(address,address,uint256,bytes)": {
        "details": "See {IERC721-safeTransferFrom}."
      },
      "setApprovalForAll(address,bool)": {
        "details": "See {IERC721-setApprovalForAll}."
      },
      "supportsInterface(bytes4)": {
        "details": "See {IERC165-supportsInterface}."
      },
      "symbol()": {
        "details": "See {IERC721Metadata-symbol}."
      },
      "tokenURI(uint256)": {
        "details": "See {IERC721Metadata-tokenURI}."
      },
      "transferFrom(address,address,uint256)": {
        "details": "See {IERC721-transferFrom}."
      },
      "transferOwnership(address)": {
        "details": "Transfers ownership of the contract to a new account (`newOwner`). Can only be called by the current owner."
      }
    },
    "version": 1
  },
  "userdoc": {
    "kind": "user",
    "methods": {},
    "version": 1
  }
}